{"contracts/SimpleStorage.sol":{"SimpleStorage":{"abi":[{"inputs":[{"internalType":"string","name":"_name","type":"string"},{"internalType":"uint256","name":"_favoriteNumber","type":"uint256"}],"name":"addPerson","outputs":[],"stateMutability":"nonpayable","type":"function"},{"inputs":[{"internalType":"string","name":"","type":"string"}],"name":"nameToFavoriteNumber","outputs":[{"internalType":"uint256","name":"","type":"uint256"}],"stateMutability":"view","type":"function"},{"inputs":[{"internalType":"uint256","name":"","type":"uint256"}],"name":"people","outputs":[{"internalType":"uint256","name":"favoriteNumber","type":"uint256"},{"internalType":"string","name":"name","type":"string"}],"stateMutability":"view","type":"function"},{"inputs":[],"name":"retrieve","outputs":[{"internalType":"uint256","name":"","type":"uint256"}],"stateMutability":"view","type":"function"},{"inputs":[{"internalType":"uint256","name":"_favoriteNumber","type":"uint256"}],"name":"store","outputs":[],"stateMutability":"nonpayable","type":"function"}],"evm":{"bytecode":{"linkReferences":{},"object":"608060405234801561001057600080fd5b50610829806100206000396000f3fe608060405234801561001057600080fd5b50600436106100575760003560e01c80632e64cec11461005c5780636057361d1461007a5780636f760f41146100965780638bab8dd5146100b25780639e7a13ad146100e2575b600080fd5b610064610113565b60405161007191906105e2565b60405180910390f35b610094600480360381019061008f9190610525565b610159565b005b6100b060048036038101906100ab91906104c9565b61018b565b005b6100cc60048036038101906100c79190610480565b61026b565b6040516100d991906105e2565b60405180910390f35b6100fc60048036038101906100f79190610525565b610299565b60405161010a9291906105fd565b60405180910390f35b600061012967466329f2f15182a360c01b610355565b61013d671fd3b7d3dd91089a60c01b610355565b61015167da7239660d2b17e360c01b610355565b600054905090565b61016d676ce2cbe0bacaaac760c01b610355565b610181677fc5ad3f2236674360c01b610355565b8060008190555050565b61019f67dcc52e1ab333678c60c01b610355565b6101b3671dd67ddceff0532660c01b610355565b6101c767c0b4ab170fc4ce8e60c01b610355565b6002604051806040016040528083815260200184815250908060018154018082558091505060019003906000526020600020906002020160009091909190915060008201518160000155602082015181600101908051906020019061022d929190610358565b505050610244673265d02ce28f109360c01b610355565b8060038360405161025591906105cb565b9081526020016040518091039020819055505050565b6003818051602081018201805184825260208301602085012081835280955050505050506000915090505481565b600281815481106102a957600080fd5b90600052602060002090600202016000915090508060000154908060010180546102d2906106f6565b80601f01602080910402602001604051908101604052809291908181526020018280546102fe906106f6565b801561034b5780601f106103205761010080835404028352916020019161034b565b820191906000526020600020905b81548152906001019060200180831161032e57829003601f168201915b5050505050905082565b50565b828054610364906106f6565b90600052602060002090601f01602090048101928261038657600085556103cd565b82601f1061039f57805160ff19168380011785556103cd565b828001600101855582156103cd579182015b828111156103cc5782518255916020019190600101906103b1565b5b5090506103da91906103de565b5090565b5b808211156103f75760008160009055506001016103df565b5090565b600061040e61040984610652565b61062d565b90508281526020810184848401111561042a576104296107bc565b5b6104358482856106b4565b509392505050565b600082601f830112610452576104516107b7565b5b81356104628482602086016103fb565b91505092915050565b60008135905061047a816107dc565b92915050565b600060208284031215610496576104956107c6565b5b600082013567ffffffffffffffff8111156104b4576104b36107c1565b5b6104c08482850161043d565b91505092915050565b600080604083850312156104e0576104df6107c6565b5b600083013567ffffffffffffffff8111156104fe576104fd6107c1565b5b61050a8582860161043d565b925050602061051b8582860161046b565b9150509250929050565b60006020828403121561053b5761053a6107c6565b5b60006105498482850161046b565b91505092915050565b600061055d82610683565b610567818561068e565b93506105778185602086016106c3565b610580816107cb565b840191505092915050565b600061059682610683565b6105a0818561069f565b93506105b08185602086016106c3565b80840191505092915050565b6105c5816106aa565b82525050565b60006105d7828461058b565b915081905092915050565b60006020820190506105f760008301846105bc565b92915050565b600060408201905061061260008301856105bc565b81810360208301526106248184610552565b90509392505050565b6000610637610648565b90506106438282610728565b919050565b6000604051905090565b600067ffffffffffffffff82111561066d5761066c610788565b5b610676826107cb565b9050602081019050919050565b600081519050919050565b600082825260208201905092915050565b600081905092915050565b6000819050919050565b82818337600083830152505050565b60005b838110156106e15780820151818401526020810190506106c6565b838111156106f0576000848401525b50505050565b6000600282049050600182168061070e57607f821691505b6020821081141561072257610721610759565b5b50919050565b610731826107cb565b810181811067ffffffffffffffff821117156107505761074f610788565b5b80604052505050565b7f4e487b7100000000000000000000000000000000000000000000000000000000600052602260045260246000fd5b7f4e487b7100000000000000000000000000000000000000000000000000000000600052604160045260246000fd5b600080fd5b600080fd5b600080fd5b600080fd5b6000601f19601f8301169050919050565b6107e5816106aa565b81146107f057600080fd5b5056fea264697066735822122051db2bbc3e45f4932fc6ca243f775b4357c87e174a2c3848da8483e42ade4b6464736f6c63430008070033","opcodes":"PUSH1 0x80 PUSH1 0x40 MSTORE CALLVALUE DUP1 ISZERO PUSH2 0x10 JUMPI PUSH1 0x0 DUP1 REVERT JUMPDEST POP PUSH2 0x829 DUP1 PUSH2 0x20 PUSH1 0x0 CODECOPY PUSH1 0x0 RETURN INVALID PUSH1 0x80 PUSH1 0x40 MSTORE CALLVALUE DUP1 ISZERO PUSH2 0x10 JUMPI PUSH1 0x0 DUP1 REVERT JUMPDEST POP PUSH1 0x4 CALLDATASIZE LT PUSH2 0x57 JUMPI PUSH1 0x0 CALLDATALOAD PUSH1 0xE0 SHR DUP1 PUSH4 0x2E64CEC1 EQ PUSH2 0x5C JUMPI DUP1 PUSH4 0x6057361D EQ PUSH2 0x7A JUMPI DUP1 PUSH4 0x6F760F41 EQ PUSH2 0x96 JUMPI DUP1 PUSH4 0x8BAB8DD5 EQ PUSH2 0xB2 JUMPI DUP1 PUSH4 0x9E7A13AD EQ PUSH2 0xE2 JUMPI JUMPDEST PUSH1 0x0 DUP1 REVERT JUMPDEST PUSH2 0x64 PUSH2 0x113 JUMP JUMPDEST PUSH1 0x40 MLOAD PUSH2 0x71 SWAP2 SWAP1 PUSH2 0x5E2 JUMP JUMPDEST PUSH1 0x40 MLOAD DUP1 SWAP2 SUB SWAP1 RETURN JUMPDEST PUSH2 0x94 PUSH1 0x4 DUP1 CALLDATASIZE SUB DUP2 ADD SWAP1 PUSH2 0x8F SWAP2 SWAP1 PUSH2 0x525 JUMP JUMPDEST PUSH2 0x159 JUMP JUMPDEST STOP JUMPDEST PUSH2 0xB0 PUSH1 0x4 DUP1 CALLDATASIZE SUB DUP2 ADD SWAP1 PUSH2 0xAB SWAP2 SWAP1 PUSH2 0x4C9 JUMP JUMPDEST PUSH2 0x18B JUMP JUMPDEST STOP JUMPDEST PUSH2 0xCC PUSH1 0x4 DUP1 CALLDATASIZE SUB DUP2 ADD SWAP1 PUSH2 0xC7 SWAP2 SWAP1 PUSH2 0x480 JUMP JUMPDEST PUSH2 0x26B JUMP JUMPDEST PUSH1 0x40 MLOAD PUSH2 0xD9 SWAP2 SWAP1 PUSH2 0x5E2 JUMP JUMPDEST PUSH1 0x40 MLOAD DUP1 SWAP2 SUB SWAP1 RETURN JUMPDEST PUSH2 0xFC PUSH1 0x4 DUP1 CALLDATASIZE SUB DUP2 ADD SWAP1 PUSH2 0xF7 SWAP2 SWAP1 PUSH2 0x525 JUMP JUMPDEST PUSH2 0x299 JUMP JUMPDEST PUSH1 0x40 MLOAD PUSH2 0x10A SWAP3 SWAP2 SWAP1 PUSH2 0x5FD JUMP JUMPDEST PUSH1 0x40 MLOAD DUP1 SWAP2 SUB SWAP1 RETURN JUMPDEST PUSH1 0x0 PUSH2 0x129 PUSH8 0x466329F2F15182A3 PUSH1 0xC0 SHL PUSH2 0x355 JUMP JUMPDEST PUSH2 0x13D PUSH8 0x1FD3B7D3DD91089A PUSH1 0xC0 SHL PUSH2 0x355 JUMP JUMPDEST PUSH2 0x151 PUSH8 0xDA7239660D2B17E3 PUSH1 0xC0 SHL PUSH2 0x355 JUMP JUMPDEST PUSH1 0x0 SLOAD SWAP1 POP SWAP1 JUMP JUMPDEST PUSH2 0x16D PUSH8 0x6CE2CBE0BACAAAC7 PUSH1 0xC0 SHL PUSH2 0x355 JUMP JUMPDEST PUSH2 0x181 PUSH8 0x7FC5AD3F22366743 PUSH1 0xC0 SHL PUSH2 0x355 JUMP JUMPDEST DUP1 PUSH1 0x0 DUP2 SWAP1 SSTORE POP POP JUMP JUMPDEST PUSH2 0x19F PUSH8 0xDCC52E1AB333678C PUSH1 0xC0 SHL PUSH2 0x355 JUMP JUMPDEST PUSH2 0x1B3 PUSH8 0x1DD67DDCEFF05326 PUSH1 0xC0 SHL PUSH2 0x355 JUMP JUMPDEST PUSH2 0x1C7 PUSH8 0xC0B4AB170FC4CE8E PUSH1 0xC0 SHL PUSH2 0x355 JUMP JUMPDEST PUSH1 0x2 PUSH1 0x40 MLOAD DUP1 PUSH1 0x40 ADD PUSH1 0x40 MSTORE DUP1 DUP4 DUP2 MSTORE PUSH1 0x20 ADD DUP5 DUP2 MSTORE POP SWAP1 DUP1 PUSH1 0x1 DUP2 SLOAD ADD DUP1 DUP3 SSTORE DUP1 SWAP2 POP POP PUSH1 0x1 SWAP1 SUB SWAP1 PUSH1 0x0 MSTORE PUSH1 0x20 PUSH1 0x0 KECCAK256 SWAP1 PUSH1 0x2 MUL ADD PUSH1 0x0 SWAP1 SWAP2 SWAP1 SWAP2 SWAP1 SWAP2 POP PUSH1 0x0 DUP3 ADD MLOAD DUP2 PUSH1 0x0 ADD SSTORE PUSH1 0x20 DUP3 ADD MLOAD DUP2 PUSH1 0x1 ADD SWAP1 DUP1 MLOAD SWAP1 PUSH1 0x20 ADD SWAP1 PUSH2 0x22D SWAP3 SWAP2 SWAP1 PUSH2 0x358 JUMP JUMPDEST POP POP POP PUSH2 0x244 PUSH8 0x3265D02CE28F1093 PUSH1 0xC0 SHL PUSH2 0x355 JUMP JUMPDEST DUP1 PUSH1 0x3 DUP4 PUSH1 0x40 MLOAD PUSH2 0x255 SWAP2 SWAP1 PUSH2 0x5CB JUMP JUMPDEST SWAP1 DUP2 MSTORE PUSH1 0x20 ADD PUSH1 0x40 MLOAD DUP1 SWAP2 SUB SWAP1 KECCAK256 DUP2 SWAP1 SSTORE POP POP POP JUMP JUMPDEST PUSH1 0x3 DUP2 DUP1 MLOAD PUSH1 0x20 DUP2 ADD DUP3 ADD DUP1 MLOAD DUP5 DUP3 MSTORE PUSH1 0x20 DUP4 ADD PUSH1 0x20 DUP6 ADD KECCAK256 DUP2 DUP4 MSTORE DUP1 SWAP6 POP POP POP POP POP POP PUSH1 0x0 SWAP2 POP SWAP1 POP SLOAD DUP2 JUMP JUMPDEST PUSH1 0x2 DUP2 DUP2 SLOAD DUP2 LT PUSH2 0x2A9 JUMPI PUSH1 0x0 DUP1 REVERT JUMPDEST SWAP1 PUSH1 0x0 MSTORE PUSH1 0x20 PUSH1 0x0 KECCAK256 SWAP1 PUSH1 0x2 MUL ADD PUSH1 0x0 SWAP2 POP SWAP1 POP DUP1 PUSH1 0x0 ADD SLOAD SWAP1 DUP1 PUSH1 0x1 ADD DUP1 SLOAD PUSH2 0x2D2 SWAP1 PUSH2 0x6F6 JUMP JUMPDEST DUP1 PUSH1 0x1F ADD PUSH1 0x20 DUP1 SWAP2 DIV MUL PUSH1 0x20 ADD PUSH1 0x40 MLOAD SWAP1 DUP2 ADD PUSH1 0x40 MSTORE DUP1 SWAP3 SWAP2 SWAP1 DUP2 DUP2 MSTORE PUSH1 0x20 ADD DUP3 DUP1 SLOAD PUSH2 0x2FE SWAP1 PUSH2 0x6F6 JUMP JUMPDEST DUP1 ISZERO PUSH2 0x34B JUMPI DUP1 PUSH1 0x1F LT PUSH2 0x320 JUMPI PUSH2 0x100 DUP1 DUP4 SLOAD DIV MUL DUP4 MSTORE SWAP2 PUSH1 0x20 ADD SWAP2 PUSH2 0x34B JUMP JUMPDEST DUP3 ADD SWAP2 SWAP1 PUSH1 0x0 MSTORE PUSH1 0x20 PUSH1 0x0 KECCAK256 SWAP1 JUMPDEST DUP2 SLOAD DUP2 MSTORE SWAP1 PUSH1 0x1 ADD SWAP1 PUSH1 0x20 ADD DUP1 DUP4 GT PUSH2 0x32E JUMPI DUP3 SWAP1 SUB PUSH1 0x1F AND DUP3 ADD SWAP2 JUMPDEST POP POP POP POP POP SWAP1 POP DUP3 JUMP JUMPDEST POP JUMP JUMPDEST DUP3 DUP1 SLOAD PUSH2 0x364 SWAP1 PUSH2 0x6F6 JUMP JUMPDEST SWAP1 PUSH1 0x0 MSTORE PUSH1 0x20 PUSH1 0x0 KECCAK256 SWAP1 PUSH1 0x1F ADD PUSH1 0x20 SWAP1 DIV DUP2 ADD SWAP3 DUP3 PUSH2 0x386 JUMPI PUSH1 0x0 DUP6 SSTORE PUSH2 0x3CD JUMP JUMPDEST DUP3 PUSH1 0x1F LT PUSH2 0x39F JUMPI DUP1 MLOAD PUSH1 0xFF NOT AND DUP4 DUP1 ADD OR DUP6 SSTORE PUSH2 0x3CD JUMP JUMPDEST DUP3 DUP1 ADD PUSH1 0x1 ADD DUP6 SSTORE DUP3 ISZERO PUSH2 0x3CD JUMPI SWAP2 DUP3 ADD JUMPDEST DUP3 DUP2 GT ISZERO PUSH2 0x3CC JUMPI DUP3 MLOAD DUP3 SSTORE SWAP2 PUSH1 0x20 ADD SWAP2 SWAP1 PUSH1 0x1 ADD SWAP1 PUSH2 0x3B1 JUMP JUMPDEST JUMPDEST POP SWAP1 POP PUSH2 0x3DA SWAP2 SWAP1 PUSH2 0x3DE JUMP JUMPDEST POP SWAP1 JUMP JUMPDEST JUMPDEST DUP1 DUP3 GT ISZERO PUSH2 0x3F7 JUMPI PUSH1 0x0 DUP2 PUSH1 0x0 SWAP1 SSTORE POP PUSH1 0x1 ADD PUSH2 0x3DF JUMP JUMPDEST POP SWAP1 JUMP JUMPDEST PUSH1 0x0 PUSH2 0x40E PUSH2 0x409 DUP5 PUSH2 0x652 JUMP JUMPDEST PUSH2 0x62D JUMP JUMPDEST SWAP1 POP DUP3 DUP2 MSTORE PUSH1 0x20 DUP2 ADD DUP5 DUP5 DUP5 ADD GT ISZERO PUSH2 0x42A JUMPI PUSH2 0x429 PUSH2 0x7BC JUMP JUMPDEST JUMPDEST PUSH2 0x435 DUP5 DUP3 DUP6 PUSH2 0x6B4 JUMP JUMPDEST POP SWAP4 SWAP3 POP POP POP JUMP JUMPDEST PUSH1 0x0 DUP3 PUSH1 0x1F DUP4 ADD SLT PUSH2 0x452 JUMPI PUSH2 0x451 PUSH2 0x7B7 JUMP JUMPDEST JUMPDEST DUP2 CALLDATALOAD PUSH2 0x462 DUP5 DUP3 PUSH1 0x20 DUP7 ADD PUSH2 0x3FB JUMP JUMPDEST SWAP2 POP POP SWAP3 SWAP2 POP POP JUMP JUMPDEST PUSH1 0x0 DUP2 CALLDATALOAD SWAP1 POP PUSH2 0x47A DUP2 PUSH2 0x7DC JUMP JUMPDEST SWAP3 SWAP2 POP POP JUMP JUMPDEST PUSH1 0x0 PUSH1 0x20 DUP3 DUP5 SUB SLT ISZERO PUSH2 0x496 JUMPI PUSH2 0x495 PUSH2 0x7C6 JUMP JUMPDEST JUMPDEST PUSH1 0x0 DUP3 ADD CALLDATALOAD PUSH8 0xFFFFFFFFFFFFFFFF DUP2 GT ISZERO PUSH2 0x4B4 JUMPI PUSH2 0x4B3 PUSH2 0x7C1 JUMP JUMPDEST JUMPDEST PUSH2 0x4C0 DUP5 DUP3 DUP6 ADD PUSH2 0x43D JUMP JUMPDEST SWAP2 POP POP SWAP3 SWAP2 POP POP JUMP JUMPDEST PUSH1 0x0 DUP1 PUSH1 0x40 DUP4 DUP6 SUB SLT ISZERO PUSH2 0x4E0 JUMPI PUSH2 0x4DF PUSH2 0x7C6 JUMP JUMPDEST JUMPDEST PUSH1 0x0 DUP4 ADD CALLDATALOAD PUSH8 0xFFFFFFFFFFFFFFFF DUP2 GT ISZERO PUSH2 0x4FE JUMPI PUSH2 0x4FD PUSH2 0x7C1 JUMP JUMPDEST JUMPDEST PUSH2 0x50A DUP6 DUP3 DUP7 ADD PUSH2 0x43D JUMP JUMPDEST SWAP3 POP POP PUSH1 0x20 PUSH2 0x51B DUP6 DUP3 DUP7 ADD PUSH2 0x46B JUMP JUMPDEST SWAP2 POP POP SWAP3 POP SWAP3 SWAP1 POP JUMP JUMPDEST PUSH1 0x0 PUSH1 0x20 DUP3 DUP5 SUB SLT ISZERO PUSH2 0x53B JUMPI PUSH2 0x53A PUSH2 0x7C6 JUMP JUMPDEST JUMPDEST PUSH1 0x0 PUSH2 0x549 DUP5 DUP3 DUP6 ADD PUSH2 0x46B JUMP JUMPDEST SWAP2 POP POP SWAP3 SWAP2 POP POP JUMP JUMPDEST PUSH1 0x0 PUSH2 0x55D DUP3 PUSH2 0x683 JUMP JUMPDEST PUSH2 0x567 DUP2 DUP6 PUSH2 0x68E JUMP JUMPDEST SWAP4 POP PUSH2 0x577 DUP2 DUP6 PUSH1 0x20 DUP7 ADD PUSH2 0x6C3 JUMP JUMPDEST PUSH2 0x580 DUP2 PUSH2 0x7CB JUMP JUMPDEST DUP5 ADD SWAP2 POP POP SWAP3 SWAP2 POP POP JUMP JUMPDEST PUSH1 0x0 PUSH2 0x596 DUP3 PUSH2 0x683 JUMP JUMPDEST PUSH2 0x5A0 DUP2 DUP6 PUSH2 0x69F JUMP JUMPDEST SWAP4 POP PUSH2 0x5B0 DUP2 DUP6 PUSH1 0x20 DUP7 ADD PUSH2 0x6C3 JUMP JUMPDEST DUP1 DUP5 ADD SWAP2 POP POP SWAP3 SWAP2 POP POP JUMP JUMPDEST PUSH2 0x5C5 DUP2 PUSH2 0x6AA JUMP JUMPDEST DUP3 MSTORE POP POP JUMP JUMPDEST PUSH1 0x0 PUSH2 0x5D7 DUP3 DUP5 PUSH2 0x58B JUMP JUMPDEST SWAP2 POP DUP2 SWAP1 POP SWAP3 SWAP2 POP POP JUMP JUMPDEST PUSH1 0x0 PUSH1 0x20 DUP3 ADD SWAP1 POP PUSH2 0x5F7 PUSH1 0x0 DUP4 ADD DUP5 PUSH2 0x5BC JUMP JUMPDEST SWAP3 SWAP2 POP POP JUMP JUMPDEST PUSH1 0x0 PUSH1 0x40 DUP3 ADD SWAP1 POP PUSH2 0x612 PUSH1 0x0 DUP4 ADD DUP6 PUSH2 0x5BC JUMP JUMPDEST DUP2 DUP2 SUB PUSH1 0x20 DUP4 ADD MSTORE PUSH2 0x624 DUP2 DUP5 PUSH2 0x552 JUMP JUMPDEST SWAP1 POP SWAP4 SWAP3 POP POP POP JUMP JUMPDEST PUSH1 0x0 PUSH2 0x637 PUSH2 0x648 JUMP JUMPDEST SWAP1 POP PUSH2 0x643 DUP3 DUP3 PUSH2 0x728 JUMP JUMPDEST SWAP2 SWAP1 POP JUMP JUMPDEST PUSH1 0x0 PUSH1 0x40 MLOAD SWAP1 POP SWAP1 JUMP JUMPDEST PUSH1 0x0 PUSH8 0xFFFFFFFFFFFFFFFF DUP3 GT ISZERO PUSH2 0x66D JUMPI PUSH2 0x66C PUSH2 0x788 JUMP JUMPDEST JUMPDEST PUSH2 0x676 DUP3 PUSH2 0x7CB JUMP JUMPDEST SWAP1 POP PUSH1 0x20 DUP2 ADD SWAP1 POP SWAP2 SWAP1 POP JUMP JUMPDEST PUSH1 0x0 DUP2 MLOAD SWAP1 POP SWAP2 SWAP1 POP JUMP JUMPDEST PUSH1 0x0 DUP3 DUP3 MSTORE PUSH1 0x20 DUP3 ADD SWAP1 POP SWAP3 SWAP2 POP POP JUMP JUMPDEST PUSH1 0x0 DUP2 SWAP1 POP SWAP3 SWAP2 POP POP JUMP JUMPDEST PUSH1 0x0 DUP2 SWAP1 POP SWAP2 SWAP1 POP JUMP JUMPDEST DUP3 DUP2 DUP4 CALLDATACOPY PUSH1 0x0 DUP4 DUP4 ADD MSTORE POP POP POP JUMP JUMPDEST PUSH1 0x0 JUMPDEST DUP4 DUP2 LT ISZERO PUSH2 0x6E1 JUMPI DUP1 DUP3 ADD MLOAD DUP2 DUP5 ADD MSTORE PUSH1 0x20 DUP2 ADD SWAP1 POP PUSH2 0x6C6 JUMP JUMPDEST DUP4 DUP2 GT ISZERO PUSH2 0x6F0 JUMPI PUSH1 0x0 DUP5 DUP5 ADD MSTORE JUMPDEST POP POP POP POP JUMP JUMPDEST PUSH1 0x0 PUSH1 0x2 DUP3 DIV SWAP1 POP PUSH1 0x1 DUP3 AND DUP1 PUSH2 0x70E JUMPI PUSH1 0x7F DUP3 AND SWAP2 POP JUMPDEST PUSH1 0x20 DUP3 LT DUP2 EQ ISZERO PUSH2 0x722 JUMPI PUSH2 0x721 PUSH2 0x759 JUMP JUMPDEST JUMPDEST POP SWAP2 SWAP1 POP JUMP JUMPDEST PUSH2 0x731 DUP3 PUSH2 0x7CB JUMP JUMPDEST DUP2 ADD DUP2 DUP2 LT PUSH8 0xFFFFFFFFFFFFFFFF DUP3 GT OR ISZERO PUSH2 0x750 JUMPI PUSH2 0x74F PUSH2 0x788 JUMP JUMPDEST JUMPDEST DUP1 PUSH1 0x40 MSTORE POP POP POP JUMP JUMPDEST PUSH32 0x4E487B7100000000000000000000000000000000000000000000000000000000 PUSH1 0x0 MSTORE PUSH1 0x22 PUSH1 0x4 MSTORE PUSH1 0x24 PUSH1 0x0 REVERT JUMPDEST PUSH32 0x4E487B7100000000000000000000000000000000000000000000000000000000 PUSH1 0x0 MSTORE PUSH1 0x41 PUSH1 0x4 MSTORE PUSH1 0x24 PUSH1 0x0 REVERT JUMPDEST PUSH1 0x0 DUP1 REVERT JUMPDEST PUSH1 0x0 DUP1 REVERT JUMPDEST PUSH1 0x0 DUP1 REVERT JUMPDEST PUSH1 0x0 DUP1 REVERT JUMPDEST PUSH1 0x0 PUSH1 0x1F NOT PUSH1 0x1F DUP4 ADD AND SWAP1 POP SWAP2 SWAP1 POP JUMP JUMPDEST PUSH2 0x7E5 DUP2 PUSH2 0x6AA JUMP JUMPDEST DUP2 EQ PUSH2 0x7F0 JUMPI PUSH1 0x0 DUP1 REVERT JUMPDEST POP JUMP INVALID LOG2 PUSH5 0x6970667358 0x22 SLT KECCAK256 MLOAD 0xDB 0x2B 0xBC RETURNDATACOPY GASLIMIT DELEGATECALL SWAP4 0x2F 0xC6 0xCA 0x24 EXTCODEHASH PUSH24 0x5B4357C87E174A2C3848DA8483E42ADE4B6464736F6C6343 STOP ADDMOD SMOD STOP CALLER "},"methodIdentifiers":{"addPerson(string,uint256)":"6f760f41","nameToFavoriteNumber(string)":"8bab8dd5","people(uint256)":"9e7a13ad","retrieve()":"2e64cec1","store(uint256)":"6057361d"}}}}}