{
  "_format": "hh-sol-artifact-1",
  "contractName": "SimpleStorage",
  "sourceName": "contracts/SimpleStorage.sol",
  "abi": [
    {
      "inputs": [
        {
          "internalType": "string",
          "name": "_name",
          "type": "string"
        },
        {
          "internalType": "uint256",
          "name": "_favoriteNumber",
          "type": "uint256"
        }
      ],
      "name": "addPerson",
      "outputs": [],
      "stateMutability": "nonpayable",
      "type": "function"
    },
    {
      "inputs": [
        {
          "internalType": "string",
          "name": "",
          "type": "string"
        }
      ],
      "name": "nameToFavoriteNumber",
      "outputs": [
        {
          "internalType": "uint256",
          "name": "",
          "type": "uint256"
        }
      ],
      "stateMutability": "view",
      "type": "function"
    },
    {
      "inputs": [
        {
          "internalType": "uint256",
          "name": "",
          "type": "uint256"
        }
      ],
      "name": "people",
      "outputs": [
        {
          "internalType": "uint256",
          "name": "favoriteNumber",
          "type": "uint256"
        },
        {
          "internalType": "string",
          "name": "name",
          "type": "string"
        }
      ],
      "stateMutability": "view",
      "type": "function"
    },
    {
      "inputs": [],
      "name": "retrieve",
      "outputs": [
        {
          "internalType": "uint256",
          "name": "",
          "type": "uint256"
        }
      ],
      "stateMutability": "view",
      "type": "function"
    },
    {
      "inputs": [
        {
          "internalType": "uint256",
          "name": "_favoriteNumber",
          "type": "uint256"
        }
      ],
      "name": "store",
      "outputs": [],
      "stateMutability": "nonpayable",
      "type": "function"
    }
  ],
  "bytecode": "0x608060405234801561001057600080fd5b50610829806100206000396000f3fe608060405234801561001057600080fd5b50600436106100575760003560e01c80632e64cec11461005c5780636057361d1461007a5780636f760f41146100965780638bab8dd5146100b25780639e7a13ad146100e2575b600080fd5b610064610113565b60405161007191906105e2565b60405180910390f35b610094600480360381019061008f9190610525565b610159565b005b6100b060048036038101906100ab91906104c9565b61018b565b005b6100cc60048036038101906100c79190610480565b61026b565b6040516100d991906105e2565b60405180910390f35b6100fc60048036038101906100f79190610525565b610299565b60405161010a9291906105fd565b60405180910390f35b600061012967466329f2f15182a360c01b610355565b61013d671fd3b7d3dd91089a60c01b610355565b61015167da7239660d2b17e360c01b610355565b600054905090565b61016d676ce2cbe0bacaaac760c01b610355565b610181677fc5ad3f2236674360c01b610355565b8060008190555050565b61019f67dcc52e1ab333678c60c01b610355565b6101b3671dd67ddceff0532660c01b610355565b6101c767c0b4ab170fc4ce8e60c01b610355565b6002604051806040016040528083815260200184815250908060018154018082558091505060019003906000526020600020906002020160009091909190915060008201518160000155602082015181600101908051906020019061022d929190610358565b505050610244673265d02ce28f109360c01b610355565b8060038360405161025591906105cb565b9081526020016040518091039020819055505050565b6003818051602081018201805184825260208301602085012081835280955050505050506000915090505481565b600281815481106102a957600080fd5b90600052602060002090600202016000915090508060000154908060010180546102d2906106f6565b80601f01602080910402602001604051908101604052809291908181526020018280546102fe906106f6565b801561034b5780601f106103205761010080835404028352916020019161034b565b820191906000526020600020905b81548152906001019060200180831161032e57829003601f168201915b5050505050905082565b50565b828054610364906106f6565b90600052602060002090601f01602090048101928261038657600085556103cd565b82601f1061039f57805160ff19168380011785556103cd565b828001600101855582156103cd579182015b828111156103cc5782518255916020019190600101906103b1565b5b5090506103da91906103de565b5090565b5b808211156103f75760008160009055506001016103df565b5090565b600061040e61040984610652565b61062d565b90508281526020810184848401111561042a576104296107bc565b5b6104358482856106b4565b509392505050565b600082601f830112610452576104516107b7565b5b81356104628482602086016103fb565b91505092915050565b60008135905061047a816107dc565b92915050565b600060208284031215610496576104956107c6565b5b600082013567ffffffffffffffff8111156104b4576104b36107c1565b5b6104c08482850161043d565b91505092915050565b600080604083850312156104e0576104df6107c6565b5b600083013567ffffffffffffffff8111156104fe576104fd6107c1565b5b61050a8582860161043d565b925050602061051b8582860161046b565b9150509250929050565b60006020828403121561053b5761053a6107c6565b5b60006105498482850161046b565b91505092915050565b600061055d82610683565b610567818561068e565b93506105778185602086016106c3565b610580816107cb565b840191505092915050565b600061059682610683565b6105a0818561069f565b93506105b08185602086016106c3565b80840191505092915050565b6105c5816106aa565b82525050565b60006105d7828461058b565b915081905092915050565b60006020820190506105f760008301846105bc565b92915050565b600060408201905061061260008301856105bc565b81810360208301526106248184610552565b90509392505050565b6000610637610648565b90506106438282610728565b919050565b6000604051905090565b600067ffffffffffffffff82111561066d5761066c610788565b5b610676826107cb565b9050602081019050919050565b600081519050919050565b600082825260208201905092915050565b600081905092915050565b6000819050919050565b82818337600083830152505050565b60005b838110156106e15780820151818401526020810190506106c6565b838111156106f0576000848401525b50505050565b6000600282049050600182168061070e57607f821691505b6020821081141561072257610721610759565b5b50919050565b610731826107cb565b810181811067ffffffffffffffff821117156107505761074f610788565b5b80604052505050565b7f4e487b7100000000000000000000000000000000000000000000000000000000600052602260045260246000fd5b7f4e487b7100000000000000000000000000000000000000000000000000000000600052604160045260246000fd5b600080fd5b600080fd5b600080fd5b600080fd5b6000601f19601f8301169050919050565b6107e5816106aa565b81146107f057600080fd5b5056fea264697066735822122051db2bbc3e45f4932fc6ca243f775b4357c87e174a2c3848da8483e42ade4b6464736f6c63430008070033",
  "linkReferences": {},
  "deployedLinkReferences": {}
}